{
  "_format": "hh-sol-artifact-1",
  "contractName": "CertificateVerification",
  "sourceName": "contracts/CertificateVerification.sol",
  "abi": [
    {
      "inputs": [],
      "stateMutability": "nonpayable",
      "type": "constructor"
    },
    {
      "anonymous": false,
      "inputs": [
        {
          "indexed": true,
          "internalType": "bytes32",
          "name": "certificateHash",
          "type": "bytes32"
        },
        {
          "indexed": false,
          "internalType": "string",
          "name": "recipientName",
          "type": "string"
        },
        {
          "indexed": false,
          "internalType": "string",
          "name": "courseName",
          "type": "string"
        }
      ],
      "name": "CertificateIssued",
      "type": "event"
    },
    {
      "anonymous": false,
      "inputs": [
        {
          "indexed": true,
          "internalType": "bytes32",
          "name": "certificateHash",
          "type": "bytes32"
        }
      ],
      "name": "CertificateRevoked",
      "type": "event"
    },
    {
      "inputs": [
        {
          "internalType": "bytes32",
          "name": "",
          "type": "bytes32"
        }
      ],
      "name": "certificates",
      "outputs": [
        {
          "internalType": "string",
          "name": "recipientName",
          "type": "string"
        },
        {
          "internalType": "string",
          "name": "courseName",
          "type": "string"
        },
        {
          "internalType": "uint256",
          "name": "issueDate",
          "type": "uint256"
        },
        {
          "internalType": "string",
          "name": "issuerName",
          "type": "string"
        },
        {
          "internalType": "bool",
          "name": "isValid",
          "type": "bool"
        }
      ],
      "stateMutability": "view",
      "type": "function"
    },
    {
      "inputs": [
        {
          "internalType": "bytes32",
          "name": "_certificateHash",
          "type": "bytes32"
        }
      ],
      "name": "getCertificate",
      "outputs": [
        {
          "internalType": "string",
          "name": "recipientName",
          "type": "string"
        },
        {
          "internalType": "string",
          "name": "courseName",
          "type": "string"
        },
        {
          "internalType": "uint256",
          "name": "issueDate",
          "type": "uint256"
        },
        {
          "internalType": "string",
          "name": "issuerName",
          "type": "string"
        },
        {
          "internalType": "bool",
          "name": "isValid",
          "type": "bool"
        }
      ],
      "stateMutability": "view",
      "type": "function"
    },
    {
      "inputs": [
        {
          "internalType": "string",
          "name": "_recipientName",
          "type": "string"
        },
        {
          "internalType": "string",
          "name": "_courseName",
          "type": "string"
        },
        {
          "internalType": "string",
          "name": "_issuerName",
          "type": "string"
        }
      ],
      "name": "issueCertificate",
      "outputs": [
        {
          "internalType": "bytes32",
          "name": "",
          "type": "bytes32"
        }
      ],
      "stateMutability": "nonpayable",
      "type": "function"
    },
    {
      "inputs": [],
      "name": "owner",
      "outputs": [
        {
          "internalType": "address",
          "name": "",
          "type": "address"
        }
      ],
      "stateMutability": "view",
      "type": "function"
    },
    {
      "inputs": [
        {
          "internalType": "bytes32",
          "name": "_certificateHash",
          "type": "bytes32"
        }
      ],
      "name": "revokeCertificate",
      "outputs": [],
      "stateMutability": "nonpayable",
      "type": "function"
    },
    {
      "inputs": [
        {
          "internalType": "bytes32",
          "name": "_certificateHash",
          "type": "bytes32"
        }
      ],
      "name": "verifyCertificate",
      "outputs": [
        {
          "internalType": "bool",
          "name": "",
          "type": "bool"
        }
      ],
      "stateMutability": "view",
      "type": "function"
    }
  ],
  "bytecode": "0x6080604052348015600f57600080fd5b5033600160006101000a81548173ffffffffffffffffffffffffffffffffffffffff021916908373ffffffffffffffffffffffffffffffffffffffff160217905550611434806100606000396000f3fe608060405234801561001057600080fd5b50600436106100625760003560e01c8063742f068814610067578063850c17681461009b5780638da5cb5b146100cb578063beec1caa146100e9578063c6cbc52a14610119578063f333fe0814610135575b600080fd5b610081600480360381019061007c9190610b76565b610169565b604051610092959493929190610c67565b60405180910390f35b6100b560048036038101906100b09190610b76565b610344565b6040516100c29190610ccf565b60405180910390f35b6100d3610595565b6040516100e09190610d2b565b60405180910390f35b61010360048036038101906100fe9190610e7b565b6105bb565b6040516101109190610f31565b60405180910390f35b610133600480360381019061012e9190610b76565b61076e565b005b61014f600480360381019061014a9190610b76565b6108b4565b604051610160959493929190610c67565b60405180910390f35b600060205280600052604060002060009150905080600001805461018c90610f7b565b80601f01602080910402602001604051908101604052809291908181526020018280546101b890610f7b565b80156102055780601f106101da57610100808354040283529160200191610205565b820191906000526020600020905b8154815290600101906020018083116101e857829003601f168201915b50505050509080600101805461021a90610f7b565b80601f016020809104026020016040519081016040528092919081815260200182805461024690610f7b565b80156102935780601f1061026857610100808354040283529160200191610293565b820191906000526020600020905b81548152906001019060200180831161027657829003601f168201915b5050505050908060020154908060030180546102ae90610f7b565b80601f01602080910402602001604051908101604052809291908181526020018280546102da90610f7b565b80156103275780601f106102fc57610100808354040283529160200191610327565b820191906000526020600020905b81548152906001019060200180831161030a57829003601f168201915b5050505050908060040160009054906101000a900460ff16905085565b6000806000808481526020019081526020016000206040518060a001604052908160008201805461037490610f7b565b80601f01602080910402602001604051908101604052809291908181526020018280546103a090610f7b565b80156103ed5780601f106103c2576101008083540402835291602001916103ed565b820191906000526020600020905b8154815290600101906020018083116103d057829003601f168201915b5050505050815260200160018201805461040690610f7b565b80601f016020809104026020016040519081016040528092919081815260200182805461043290610f7b565b801561047f5780601f106104545761010080835404028352916020019161047f565b820191906000526020600020905b81548152906001019060200180831161046257829003601f168201915b50505050508152602001600282015481526020016003820180546104a290610f7b565b80601f01602080910402602001604051908101604052809291908181526020018280546104ce90610f7b565b801561051b5780601f106104f05761010080835404028352916020019161051b565b820191906000526020600020905b8154815290600101906020018083116104fe57829003601f168201915b505050505081526020016004820160009054906101000a900460ff16151515158152505090506000816040015103610588576040517f08c379a000000000000000000000000000000000000000000000000000000000815260040161057f90610ff8565b60405180910390fd5b8060800151915050919050565b600160009054906101000a900473ffffffffffffffffffffffffffffffffffffffff1681565b6000600160009054906101000a900473ffffffffffffffffffffffffffffffffffffffff1673ffffffffffffffffffffffffffffffffffffffff163373ffffffffffffffffffffffffffffffffffffffff161461064d576040517f08c379a00000000000000000000000000000000000000000000000000000000081526004016106449061108a565b60405180910390fd5b6000848442856040516020016106669493929190611107565b6040516020818303038152906040528051906020012090506040518060a001604052808681526020018581526020014281526020018481526020016001151581525060008083815260200190815260200160002060008201518160000190816106cf91906112f5565b5060208201518160010190816106e591906112f5565b5060408201518160020155606082015181600301908161070591906112f5565b5060808201518160040160006101000a81548160ff021916908315150217905550905050807f23cb08027d6cf3f884123dc2fcb28589d27c93a6efdd5273282b92e1bab97671868660405161075b9291906113c7565b60405180910390a2809150509392505050565b600160009054906101000a900473ffffffffffffffffffffffffffffffffffffffff1673ffffffffffffffffffffffffffffffffffffffff163373ffffffffffffffffffffffffffffffffffffffff16146107fe576040517f08c379a00000000000000000000000000000000000000000000000000000000081526004016107f59061108a565b60405180910390fd5b60008060008381526020019081526020016000206002015403610856576040517f08c379a000000000000000000000000000000000000000000000000000000000815260040161084d90610ff8565b60405180910390fd5b600080600083815260200190815260200160002060040160006101000a81548160ff021916908315150217905550807f44d80a438cb4fa3b5aedbe551ce3d9382e37f446917b783e1dee70a03b4180e360405160405180910390a250565b606080600060606000806000808881526020019081526020016000206040518060a00160405290816000820180546108eb90610f7b565b80601f016020809104026020016040519081016040528092919081815260200182805461091790610f7b565b80156109645780601f1061093957610100808354040283529160200191610964565b820191906000526020600020905b81548152906001019060200180831161094757829003601f168201915b5050505050815260200160018201805461097d90610f7b565b80601f01602080910402602001604051908101604052809291908181526020018280546109a990610f7b565b80156109f65780601f106109cb576101008083540402835291602001916109f6565b820191906000526020600020905b8154815290600101906020018083116109d957829003601f168201915b5050505050815260200160028201548152602001600382018054610a1990610f7b565b80601f0160208091040260200160405190810160405280929190818152602001828054610a4590610f7b565b8015610a925780601f10610a6757610100808354040283529160200191610a92565b820191906000526020600020905b815481529060010190602001808311610a7557829003601f168201915b505050505081526020016004820160009054906101000a900460ff16151515158152505090506000816040015103610aff576040517f08c379a0000000000000000000000000000000000000000000000000000000008152600401610af690610ff8565b60405180910390fd5b80600001518160200151826040015183606001518460800151955095509550955095505091939590929450565b6000604051905090565b600080fd5b600080fd5b6000819050919050565b610b5381610b40565b8114610b5e57600080fd5b50565b600081359050610b7081610b4a565b92915050565b600060208284031215610b8c57610b8b610b36565b5b6000610b9a84828501610b61565b91505092915050565b600081519050919050565b600082825260208201905092915050565b60005b83811015610bdd578082015181840152602081019050610bc2565b60008484015250505050565b6000601f19601f8301169050919050565b6000610c0582610ba3565b610c0f8185610bae565b9350610c1f818560208601610bbf565b610c2881610be9565b840191505092915050565b6000819050919050565b610c4681610c33565b82525050565b60008115159050919050565b610c6181610c4c565b82525050565b600060a0820190508181036000830152610c818188610bfa565b90508181036020830152610c958187610bfa565b9050610ca46040830186610c3d565b8181036060830152610cb68185610bfa565b9050610cc56080830184610c58565b9695505050505050565b6000602082019050610ce46000830184610c58565b92915050565b600073ffffffffffffffffffffffffffffffffffffffff82169050919050565b6000610d1582610cea565b9050919050565b610d2581610d0a565b82525050565b6000602082019050610d406000830184610d1c565b92915050565b600080fd5b600080fd5b7f4e487b7100000000000000000000000000000000000000000000000000000000600052604160045260246000fd5b610d8882610be9565b810181811067ffffffffffffffff82111715610da757610da6610d50565b5b80604052505050565b6000610dba610b2c565b9050610dc68282610d7f565b919050565b600067ffffffffffffffff821115610de657610de5610d50565b5b610def82610be9565b9050602081019050919050565b82818337600083830152505050565b6000610e1e610e1984610dcb565b610db0565b905082815260208101848484011115610e3a57610e39610d4b565b5b610e45848285610dfc565b509392505050565b600082601f830112610e6257610e61610d46565b5b8135610e72848260208601610e0b565b91505092915050565b600080600060608486031215610e9457610e93610b36565b5b600084013567ffffffffffffffff811115610eb257610eb1610b3b565b5b610ebe86828701610e4d565b935050602084013567ffffffffffffffff811115610edf57610ede610b3b565b5b610eeb86828701610e4d565b925050604084013567ffffffffffffffff811115610f0c57610f0b610b3b565b5b610f1886828701610e4d565b9150509250925092565b610f2b81610b40565b82525050565b6000602082019050610f466000830184610f22565b92915050565b7f4e487b7100000000000000000000000000000000000000000000000000000000600052602260045260246000fd5b60006002820490506001821680610f9357607f821691505b602082108103610fa657610fa5610f4c565b5b50919050565b7f436572746966696361746520646f6573206e6f74206578697374000000000000600082015250565b6000610fe2601a83610bae565b9150610fed82610fac565b602082019050919050565b6000602082019050818103600083015261101181610fd5565b9050919050565b7f4f6e6c79206f776e65722063616e20706572666f726d2074686973206163746960008201527f6f6e000000000000000000000000000000000000000000000000000000000000602082015250565b6000611074602283610bae565b915061107f82611018565b604082019050919050565b600060208201905081810360008301526110a381611067565b9050919050565b600081905092915050565b60006110c082610ba3565b6110ca81856110aa565b93506110da818560208601610bbf565b80840191505092915050565b6000819050919050565b6111016110fc82610c33565b6110e6565b82525050565b600061111382876110b5565b915061111f82866110b5565b915061112b82856110f0565b60208201915061113b82846110b5565b915081905095945050505050565b60008190508160005260206000209050919050565b60006020601f8301049050919050565b600082821b905092915050565b6000600883026111ab7fffffffffffffffffffffffffffffffffffffffffffffffffffffffffffffffff8261116e565b6111b5868361116e565b95508019841693508086168417925050509392505050565b6000819050919050565b60006111f26111ed6111e884610c33565b6111cd565b610c33565b9050919050565b6000819050919050565b61120c836111d7565b611220611218826111f9565b84845461117b565b825550505050565b600090565b611235611228565b611240818484611203565b505050565b5b818110156112645761125960008261122d565b600181019050611246565b5050565b601f8211156112a95761127a81611149565b6112838461115e565b81016020851015611292578190505b6112a661129e8561115e565b830182611245565b50505b505050565b600082821c905092915050565b60006112cc600019846008026112ae565b1980831691505092915050565b60006112e583836112bb565b9150826002028217905092915050565b6112fe82610ba3565b67ffffffffffffffff81111561131757611316610d50565b5b6113218254610f7b565b61132c828285611268565b600060209050601f83116001811461135f576000841561134d578287015190505b61135785826112d9565b8655506113bf565b601f19841661136d86611149565b60005b8281101561139557848901518255600182019150602085019450602081019050611370565b868310156113b257848901516113ae601f8916826112bb565b8355505b6001600288020188555050505b505050505050565b600060408201905081810360008301526113e18185610bfa565b905081810360208301526113f58184610bfa565b9050939250505056fea264697066735822122003ecff2478b3a06e175cbcf22783019f083318df9c2174fb963d85986aca807264736f6c634300081c0033",
  "linkReferences": {},
  "deployedLinkReferences": {}
}